:020000040800F2
:10000000780600208901000891010008930100088A
:100010009501000897010008990100080000000000
:100020000000000000000000000000009B0100082C
:100030009D010008000000009F010008A1010008C8
:10004000A3010008A3010008A3010008A301000800
:10005000A3010008A3010008A3010008A3010008F0
:10006000A3010008A3010008A3010008A3010008E0
:10007000A3010008A3010008A3010008A3010008D0
:10008000A3010008A3010008A3010008A3010008C0
:10009000A3010008A3010008A3010008A3010008B0
:1000A000A3010008A3010008A3010008A3010008A0
:1000B00081060008A3010008A3010008A3010008AD
:1000C000A3010008A3010008A3010008A301000880
:1000D000A3010008A3010008A3010008A301000870
:1000E000A3010008A3010008A301000800F002F822
:1000F00000F03AF80AA090E8000C82448344AAF188
:100100000107DA4501D100F02FF8AFF2090EBAE885
:100110000F0013F0010F18BFFB1A43F0010318473B
:100120009C080000BC080000103A24BF78C878C1C1
:10013000FAD8520724BF30C830C144BF04680C60ED
:10014000704700000023002400250026103A28BF35
:1001500078C1FBD8520728BF30C148BF0B60704739
:100160001FB51FBD10B510BD00F031F81146FFF7E7
:10017000F7FF00F00BFC00F04FF803B4FFF7F2FFBD
:1001800003BC00F057F800000948804709480047C1
:10019000FEE7FEE7FEE7FEE7FEE7FEE7FEE7FEE737
:1001A000FEE7FEE704480549054A064B7047000094
:1001B000C5050008ED000008780000207806002042
:1001C000780200207802002070477047704775461B
:1001D00000F02CF8AE4605006946534620F00700B3
:1001E000854618B020B5FFF7DDFFBDE820404FF091
:1001F00000064FF000074FF000084FF0000B21F011
:100200000701AC46ACE8C009ACE8C009ACE8C009DD
:10021000ACE8C0098D46704710B50446AFF30080C6
:100220002046BDE81040FFF7A8BF00000048704717
:100230001800002001491820ABBEFEE7260002008E
:1002400070472DE9F04102460025002600200023DA
:100250000024002791F803C00CF00F0591F803C0AB
:100260000CF0100CBCF1000F03D091F802C04CEA66
:10027000050591F800C0BCF1000F31D014680020D2
:100280002BE04FF0010C0CFA00F3B1F800C00CEABF
:1002900003069E4220D183004FF00F0C0CFA03F7A7
:1002A000BC4305FA03FC4CEA040491F803C0BCF11A
:1002B000280F06D14FF0010C0CFA00FCC2F814C054
:1002C0000AE091F803C0BCF1480F05D14FF0010CD2
:1002D0000CFA00FCC2F810C0401C0828D1D31460EE
:1002E000B1F800C0BCF1FF0F34DD546800202EE0EF
:1002F00000F1080C4FF0010808FA0CF3B1F800C047
:100300000CEA03069E4221D183004FF00F0C0CFA39
:1003100003F7BC4305FA03FC4CEA040491F803C05C
:10032000BCF1280F05D100F1080C08FA0CF8C2F84E
:10033000148091F803C0BCF1480F07D100F1080CFC
:100340004FF0010808FA0CF8C2F81080401C082889
:10035000CED35460BDE8F08170B5002100230F2298
:10036000C47804B3154C246804F4E064C4F5E06474
:10037000210AC1F10403CA40447804FA03F18478E5
:100380001440214309010E4C0678A155047804F06D
:100390001F050124AC4005786D11AD0005F1E02585
:1003A000C5F8004109E0047804F01F050124AC40C1
:1003B000044D0678761145F8264070BD0CED00E03E
:1003C00000E400E080E100E029B1064AD26902437E
:1003D000044BDA6104E0034AD2698243014BDA61DB
:1003E000704700000010024029B1064A926902439A
:1003F000044B9A6104E0034A92698243014B9A617B
:10040000704700000010024030B500210022002497
:1004100000232D4D6D6805F00C0121B1042905D094
:10042000082923D105E0294D056022E0274D05600C
:100430001FE0254D6D6805F47012234D6D6805F4BD
:100440008034022505EB92421CB9214D55430560CD
:100450000BE01D4D6D6805F400351DB11C4D554375
:10046000056002E0194D5543056002E0174D056037
:1004700000BF00BF144D6D6805F0F0010909154D6E
:100480006B5C0568DD4045600F4D6D6805F4E0610B
:10049000090A104D6B5C4568DD4085600A4D6D684A
:1004A00005F46051C90A0B4D6B5C4568DD40C560C1
:1004B000054D6D6805F44041890B074D6B5CC568BF
:1004C000B5FBF3F5056130BD0010024000127A0063
:1004D00000093D00040000201400002010B500F0C9
:1004E00001F810BD0CB50020019000903348006861
:1004F00040F480303149086000BF3048006800F4A3
:10050000003000900198401C0190009818B90198A3
:10051000B0F5A06FF1D12948006800F4003010B1A7
:100520000120009001E0002000900098012843D1B4
:100530002348006840F01000214908600846006820
:1005400020F0070008600846006840F002000860DC
:100550001A4840681949486008464068486008469B
:10056000406840F4806048600846406820F47C1091
:1005700048600846406840F4E81048600846006853
:1005800040F08070086000BF0C48006800F0007008
:100590000028F9D00948406820F003000749486066
:1005A0000846406840F00200486000BF03484068C9
:1005B00000F00C000828F9D10CBD0000001002402A
:1005C0000020024010B51348006840F001001149B6
:1005D000086008464068104908400E4948600846CF
:1005E00000680E4908400B4908600846006820F47E
:1005F000802008600846406820F4FE0048604FF400
:100600001F008860FFF76AFF4FF000600449086030
:1006100010BD0000001002400000FFF8FFFFF6FED2
:1006200008ED00E01FB501210846FFF7CDFE4FF4AD
:100630006160ADF804001320ADF808000020ADF8AB
:100640000A00ADF8060001A94FF0804000F054F810
:1006500001221146900700F045F80121880700F0BB
:1006600024F81C208DF8000000208DF801008DF882
:10067000020001208DF803006846FFF76DFE1FBDE4
:1006800010B50121880700F01CF840B1044800684B
:10069000401C034908600121880700F003F810BDE1
:1006A00000000020CA430282704721B1028842F054
:1006B0000102028004E002884FF6FE731A400280B5
:1006C000704730B50246002000230024158A05EA51
:1006D0000103958905EA010413B10CB1012000E082
:1006E000002030BD1AB183890B43838102E08389E6
:1006F0008B43838170470000002202881D4B984283
:100700000ED01D4B98420BD0B0F1804F08D01B4B40
:10071000984205D01A4B984202D01A4B984204D105
:100720004FF68F731A404B881A43174B984207D0E5
:10073000164B984204D04FF6FF431A40CB881A4319
:1007400002808B8883850B8803850A4B98420BD0E7
:10075000094B984208D00E4B984205D00D4B984259
:1007600002D00D4B984201D10B7A0386012383827C
:1007700070470000002C014000340140000400409C
:1007800000080040000C0040001000400014004031
:1007900000400140004401400048014000B585B0E0
:1007A000012144F21400FFF71FFE18208DF81300FA
:1007B0004FF40070ADF8100003208DF8120004A96A
:1007C0001648FFF73EFD48208DF813004FF4806077
:1007D000ADF8100003208DF8120004A90F48FFF7B0
:1007E00030FD4FF4165000904FF48050ADF80400E7
:1007F0004000ADF806000020ADF80C000820ADF870
:100800000A00C001ADF808006946054800F042F84A
:100810000121034800F024F805B000BD00080140A4
:100820000038014070B505460E4600240CE000BFBC
:1008300080210A4800F020F80028F9D0295D0748F7
:1008400000F094F8601CC4B2B442F0DB00BF402159
:10085000024800F011F80028F9D070BD00380140BE
:1008600021B1828942F40052828104E082894DF6EE
:10087000FF731A408281704702460020B1F5007F65
:1008800000D100BF13880B400BB1012000E0002015
:10089000704700002DE9F04786B005460E4600245B
:1008A000A24600BFA1460027B08900B100BF2F4675
:1008B0002C8A4CF6FF700440F08804432C82AC89EB
:1008C0004EF6F3100440B08831890843718908431B
:1008D0000443AC81AC8A4FF6FF400440B089044326
:1008E000AC8201A8FFF790FD1F48874202D1DDF8D6
:1008F00010A001E0DDF80CA0A88900F4004040B190
:100900000AEBCA0000EB0A1031684900B0FBF1F8AD
:1009100007E00AEBCA0000EB0A1031688900B0FB5F
:10092000F1F86420B8FBF0F004012009642101FB18
:100930001089A88900F4004040B1322000EBC900C2
:10094000B0FBF1F000F00700044308E0322000EBB8
:1009500009106421B0FBF1F000F00F0004432C817A
:1009600006B0BDE8F087000000380140C1F308027E
:10097000828070470021044A116000BF0249096863
:100980008142FBD370470000000000201CB5FFF738
:1009900005FFFFF747FE07A103C9CDE900014FF4AA
:1009A000FA60FFF7E7FF06216846FFF73BFF0020EC
:1009B0001CBD00001A2B3C4D5E6F0000DC090008D6
:1009C000000000201800000028010008F4090008B9
:1009D000180000206006000044010008000000002C
:1009E00000000000010203040102030406070809D5
:0409F00002040608EF
:040000050800018965
:00000001FF
